:040000008031222801
:100008007E14803120007F08A200911C1E289131A7
:100018008E2180312000A1002108E9006908031918
:100028001B28E830F6000330F7009031D320200079
:100038009A0191102208FF007E10090080312428BF
:10004800F23084008C3085007030860022308700C2
:100058000130FF0080309F311A278031043084003E
:100068009F308500E6308600003087000030FF00B2
:100078000A309F311A2780318B30840093308500F5
:1000880020308600013087000030FF0046309F3165
:100098001A2780317E30840092308500A030860097
:1000A800013087000030FF0040309F311A2780312F
:1000B800E401E501E601E701E801E901EA01EB01F4
:1000C800A0308400003085004630FE000030FF007C
:1000D8009F310E2780312200E601E701E801E9019E
:1000E800EA01EB01EC01ED012030840002308500CB
:1000F8004030FE000030FF009F310E277E102000A8
:100108009F31522F21002103031DA5282A302000EA
:10011800D8005808B2000530D9005908B300023099
:100128009231BE228031CF302000B2009030B3002F
:100138000530D8005808B400033094316C2480315D
:100148007E2B023021002106031D7E2B2A30200041
:10015800D8005808B2000530D9005908B300033058
:100168009231BE228031CF302000B2009030B300EF
:100178000530D8005808B400023094316C2480311E
:100188007E2B2000E9016408D8000330D835890B9C
:10019800CA28A6305807D90065085907DA005A084E
:1001A8008600870101080339DB006408DC0003309E
:1001B800DC35890BDC28A6305C07DD0065085D07A7
:1001C800DE005E08860087015B0881006508D800AC
:1001D8005808B9006408D9000330D935890BF128CB
:1001E800A6305907DA0065085A07DB005B08860065
:1001F80087010108DC000230DC35FF3E031D0029C1
:100208005C35B03EDD005D08BA00640897316027B0
:10021800803120006408073E0739D8005808E400F8
:100228006408D8000330D835890B1729A630580739
:10023800D90065085907DA005A08860087010108BD
:100248000838DB006408DC000330DC35890B292919
:10025800A6305C07DD0065085D07DE005E088600E5
:1002680087015B0881006508D8005808B900640850
:10027800D9000330D935890B3E29A6305907DA0051
:1002880065085A07DB005B08860087010108DC0067
:100298000230DC35FF3E031D4D295C35D83EB03EAB
:1002A800DD005D08BA006408973160270800200067
:1002B800E9016408D8000330D835890B6029A630D5
:1002C8005807D90065085907DA005A0886008701D7
:1002D80001080339DB006408DC000330DC35890BD6
:1002E8007229A6305C07DD0065085D07DE005E0840
:1002F800860087015B0881006508D8005808B900A6
:100308006408D9000330D935890B8729A6305907E5
:10031800DA0065085A07DB005B08860087010108D8
:10032800DC000230DC35FF3E031D96295C35B03E0B
:10033800DD005D08BA00640897316027803120002D
:100348006408013E0739D8005808E4006408D8005A
:100358000330D835890BAD29A6305807D900650870
:100368005907DA005A088600870101080838DB00B7
:100378006408DC000330DC35890BBF29A6305C0734
:10038800DD0065085D07DE005E08860087015B0802
:1003980081006508D8005808B9006408D9000330FE
:1003A800D935890BD429A6305907DA0065085A07C8
:1003B800DB005B08860087010108DC000230DC35C1
:1003C800FF3E031DE3295C35D83EB03EDD005D08E5
:1003D800BA0064089731602708002000E901640822
:1003E800D8000330D835890BF629A6305807D9002C
:1003F80065085907DA005A08860087010108033999
:10040800DB006408DC000330DC35890B082AA630E1
:100418005C07DD0065085D07DE005E088600870171
:100428005B0881006508D8005808B9006408D9003D
:100438000330D935890B1D2AA6305907DA0065081B
:100448005A07DB005B08860087010108DC000230E0
:10045800DC35FF3E031D2C2A5C35B03EDD005D080F
:10046800BA00640897316027803120006508073E8C
:100478000739D8005808E5006408D8000330D83593
:10048800890B432AA6305807D90065085907DA00AE
:100498005A088600870101080838DB006408DC0078
:1004A8000330DC35890B552AA6305C07DD0065086A
:1004B8005D07DE005E08860087015B08810065082D
:1004C800D8005808B9006408D9000330D935890B19
:1004D8006A2AA6305907DA0065085A07DB005B0864
:1004E800860087010108DC000230DC35FF3E031D71
:1004F800792A5C35D83EB03EDD005D08BA00640854
:100508009731602708002000E9016408D80003300B
:10051800D835890B8C2AA6305807D90065085907A1
:10052800DA005A088600870101080339DB006408ED
:10053800DC000330DC35890B9E2AA6305C07DD0021
:1005480065085D07DE005E08860087015B0881009C
:100558006508D8005808B9006408D9000330D935AF
:10056800890BB32AA6305907DA0065085A07DB0059
:100578005B08860087010108DC000230DC35FF3E9D
:10058800031DC22A5C35B03EDD005D08BA00640870
:1005980097316027803120006508013E0739D8006F
:1005A8005808E5006408D8000330D835890BD92AE3
:1005B800A6305807D90065085907DA005A08860096
:1005C800870101080838DB006408DC000330DC35EB
:1005D800890BEB2AA6305C07DD0065085D07DE00A5
:1005E8005E08860087015B0881006508D800580806
:1005F800B9006408D9000330D935890B002BA6301F
:100608005907DA0065085A07DB005B08860087018E
:100618000108DC000230DC35FF3E031D0F2B5C3582
:10062800D83EB03EDD005D08BA0064089731602707
:1006380008002000E9016508D8005808C500210015
:1006480021082000D9005908C60064088E31722696
:100658008031003A031908002100210895317725D7
:1006680080312000D80058082100A2002208031D6C
:10067800462B2103FF3A033E2000D80058082100EA
:10068800A10008002203031D4E2B40302000B200B9
:100698009030612B023021002206031D582B363082
:1006A8002000B2009030612B033021002206031D88
:1006B800732BBB302000B2009030B300B401B40AF1
:1006C800013094316C24803100302000B200903029
:1006D800B300B401B40A023094316C24803106307E
:1006E80020006906031D732B9F31742780319131D7
:1006F8001A21080020006908013A0319C528033A9D
:1007080003195B29013A0319F129073A0319872AC2
:10071800013A03191D2B033A0319782B932B080070
:100728007C2E2000E9016408DB000330DB35890BEF
:100738009A2BA6305B07DC0065085C07DD005D08C6
:100748008600870101080339DE006408DF000330F2
:10075800DF35890BAC2BA6305F07E0006508600722
:10076800E1006108860087015E0881006508DB00FA
:100778005B08B9006408DC000330DC35890BC12B49
:10078800A6305C07DD0065085D07DE005E088600B0
:1007980087010108DF000230DF35FF3E031DD02B43
:1007A8005F35B03EE0006008BA0064089731602702
:1007B800833120006408073E0739DB005B08E4004A
:1007C8006408DB000330DB35890BE72BA6305B07B9
:1007D800DC0065085C07DD005D088600870101080C
:1007E8000838DE006408DF000330DF35890BF92B99
:1007F800A6305F07E00065086007E1006108860031
:1008080087015E0881006508DB005B08B9006408A1
:10081800DC000330DC35890B0E2CA6305C07DD00CC
:1008280065085D07DE005E08860087010108DF00B5
:100838000230DF35FF3E031D1D2C5F35D83EB03E2C
:10084800E0006008BA0064089731602708002000BB
:10085800E9016408DB000330DB35890B302CA63056
:100868005B07DC0065085C07DD005D088600870122
:1008780001080339DE006408DF000330DF35890B27
:10088800422CA6305F07E00065086007E1006108B8
:10089800860087015E0881006508DB005B08B900F7
:1008A8006408DC000330DC35890B572CA6305C0764
:1008B800DD0065085D07DE005E0886008701010827
:1008C800DF000230DF35FF3E031D662C5F35B03E8A
:1008D800E0006008BA00640897316027833120007F
:1008E8006408013E0739DB005B08E4006408DB00AC
:1008F8000330DB35890B7D2CA6305B07DC006508EF
:100908005C07DD005D088600870101080838DE0005
:100918006408DF000330DF35890B8F2CA6305F07B2
:10092800E00065086007E1006108860087015E084D
:1009380081006508DB005B08B9006408DC0003304F
:10094800DC35890BA42CA6305C07DD0065085D0743
:10095800DE005E08860087010108DF000230DF350F
:10096800FF3E031DB32C5F35D83EB03EE000600863
:10097800BA0064089731602708002000E90164087C
:10098800DB000330DB35890BC62CA6305B07DC00A7
:1009980065085C07DD005D088600870101080339EA
:1009A800DE006408DF000330DF35890BD82CA63061
:1009B8005F07E00065086007E100610886008701BD
:1009C8005E0881006508DB005B08B9006408DC008C
:1009D8000330DC35890BED2CA6305C07DD0065089B
:1009E8005D07DE005E08860087010108DF0002302F
:1009F800DF35FF3E031DFC2C5F35B03EE00060088C
:100A0800BA00640897316027833120006508073EE3
:100A18000739DB005B08E5006408DB000330DB35E1
:100A2800890B132DA6305B07DC0065085C07DD0029
:100A38005D088600870101080838DE006408DF00C9
:100A48000330DF35890B252DA6305F07E0006508E8
:100A58006007E1006108860087015E08810065087B
:100A6800DB005B08B9006408DC000330DC35890B67
:100A78003A2DA6305C07DD0065085D07DE005E08DC
:100A8800860087010108DF000230DF35FF3E031DC5
:100A9800492D5F35D83EB03EE0006008BA006408D2
:100AA8009731602708002000E9016408DB00033063
:100AB800DB35890B5C2DA6305B07DC0065085C071D
:100AC800DD005D088600870101080339DE0064083F
:100AD800DF000330DF35890B6E2DA6305F07E0009D
:100AE80065086007E1006108860087015E088100EB
:100AF8006508DB005B08B9006408DC000330DC35FE
:100B0800890B832DA6305C07DD0065085D07DE00D4
:100B18005E08860087010108DF000230DF35FF3EEE
:100B2800031D922D5F35B03EE0006008BA006408EE
:100B380097316027833120006508013E0739DB00C3
:100B48005B08E5006408DB000330DB35890BA92D61
:100B5800A6305B07DC0065085C07DD005D088600E1
:100B6800870101080838DE006408DF000330DF353C
:100B7800890BBB2DA6305F07E00065086007E10020
:100B88006108860087015E0881006508DB005B0854
:100B9800B9006408DC000330DC35890BD02DA630A1
:100BA8005C07DD0065085D07DE005E0886008701DA
:100BB8000108DF000230DF35FF3E031DDF2D5F3502
:100BC800D83EB03EE0006008BA006408973160275C
:100BD80008002000E9016408DB00DC015B08D000A4
:100BE8005C08D1006508DD00DE015D08D2005E0802
:100BF800D300883181208331003A0319080001307D
:100C08002000DB005B082100A50705302000DB0081
:100C18005B08AC00210025082000DC005C08AD0062
:100C28002A309331D12383312A302000B200013099
:100C3800B3000530DB005B08B400023094316C244B
:100C480083319131E4218331003A031908000030DF
:100C58002000B200B30095311A258331B33020004B
:100C6800B2009030B300B401B40A013094316C245E
:100C7800833100302000B2009030B300B401B40AD0
:100C8800023094316C248331063020006906031D3C
:100C9800482EE9010230DB005B082100A3008A31FD
:100CA800F82283312000DB005B08EA006A08031998
:100CB800622E6A088A3114228331642E2100A3012E
:100CC8002000E9010230DB005B082100A3008A3123
:100CD800F82283312000DB005B08EA006A08031968
:100CE800792E6A088A31142208002100A30108001D
:100CF80020006908013A0319952B033A03192B2C94
:100D0800013A0319C12C073A0319572D013A03195F
:100D1800ED2D033A0319642E912E080001302000AE
:100D2800B0000030B1009F31342786316430200094
:100D3800A9000030AA009031F52086313430200017
:100D4800B0000030B1009F31342786312000C30144
:100D5800403043020318642F103043020318E22E78
:100D68004308803EB000003003180130B1009F31C5
:100D78003427863184302000B0000030B1009F3124
:100D8800342786317F302000B0000030B1009F3119
:100D9800432786312000C201C20A083042020318E4
:100DA8005B2FFF30B0000030B1009F314327863100
:100DB80001302000C0004008C207D12E2030430275
:100DC8000318052F10304302031C052F4308803EEB
:100DD800B000003003180130B1009F31342786314C
:100DE80084302000B0000030B1009F3134278631B4
:100DF80078302000B0000030B1009F3143278631A1
:100E08005B2F3030200043020318292F2030430283
:100E1800031C292F4308603EB0000030031801303E
:100E2800B1009F31342786318C302000B00000306B
:100E3800B1009F313427863178302000B00000306F
:100E4800B1009F31432786315B2F20004308603E65
:100E5800B000003003180130B1009F3134278631CB
:100E68008C302000B0000030B1009F31342786312B
:100E78007F302000B0000030B1009F314327863119
:100E88002000C201C20A0830420203185B2FFF305B
:100E9800B0000030B1009F31432786310130200077
:100EA800C0004008C20708304202031C4B2F013023
:100EB8002000C0004008C30740304302031CB02E86
:100EC8003630B0000030B1009F31342786313030E1
:100ED8002000B0000030B1009F3134278631053042
:100EE8002000C0004008AC00210025082000C100F7
:100EF8004108AD002A309331D12386312A302000B1
:100F0800B2000130B3000530C0004008B400023020
:100F180094316C24863120003E033F04031DA02F2A
:100F28005B30B2009030B3000530C0004008B40018
:100F3800033094316C248631023020003E063F0491
:100F4800031DB22F6B30B2009030B3000530C000E3
:100F58004008B400033094316C24863103302000FB
:100F68003E063F04031DC42F7B30B2009030B3000F
:100F78000530C0004008B400033094316C24863139
:100F8800043020003E063F04031DD62F9B30B200DC
:100F98009030B3000530C0004008B40003309431ED
:100FA8006C248631053020003E063F04031DE82FDF
:100FB800AB30B2009030B3000530C0004008B40038
:100FC800033094316C248631063020003E063F04FD
:100FD800031D08008B30B2009030B3000530C0000C
:0C0FE8004008B400033094316C24080071
:1010120000302000B200B30095311A25883121003A
:10102200A101A10AA20102302000C5004508E80082
:101032000230C5004508EB003C30C50045082100E0
:10104200A00003302000C5004508E4000330C500BD
:101052004508E5000030A300A4004030A5000030A0
:10106200A600A6309F31A927883109302000C5008B
:1010720045082100C100CA01CA0A02302000C50089
:1010820045082100C20002302000C50045082100A9
:10109200C90003302000C5004508B9004630C6002B
:1010A2004608BA00033097316027883104302000A7
:1010B200C5004508B9005630C6004608BA000430DB
:1010C20097316027883104302000C5004508B900F7
:1010D2005E30C6004608BA00033097316027883177
:1010E20003302000C5004508B9005E30C60046083E
:1010F200BA000430973160278831893144210800D1
:1011020020005108A4005008A3005308A60052086A
:10111200A5009F31E0278831003A031D9228003054
:10112200080020005008D4000330D435890B9628DB
:10113200A6305407D50052085507D6005608860037
:10114200870103300105D70057030319BE28500851
:10115200D4000330D435890BAB28A6305407D50010
:1011620052085507D600560886008701033001054C
:10117200D70002305706031D42295008D40003301D
:10118200D435890BC128A6305407D500520855071B
:10119200D60056088600870101080339FF3A013E4E
:1011A200033E0838D7005008D8000330D835890BE1
:1011B200D728A6305807D90052085907DA005A082A
:1011C20086008701570881005208D4005408B900EC
:1011D2005008D5000330D535890BEC28A6305507C9
:1011E200D60052085607D700570886008701010823
:1011F200D8000230D835FF3E031DFB285835D83EB3
:10120200B03ED9005908BA0050089731602788319A
:1012120020005008FF3EC500FF30513DC600530874
:10122200C8005208C7009631D226883120005008E3
:10123200013EC5000030513DC6005308C8005208A7
:10124200C7009631D226883120005108C6005008C6
:10125200C5005208FF3EC700FF30533DC80096311B
:10126200D226883120005108C6005008C500520815
:10127200013EC7000030533DC8009631D2260130EE
:1012820008000030080001302000B0000030B1003A
:101292009F313427893164302000A9000030AA0030
:1012A2009031F520893134302000B0000030B10097
:1012B2009F31342789312000C10140304102031897
:1012C200D12910304102031894294108803EB00010
:1012D200003003180130B1009F3134278931843046
:1012E2002000B0000030B1009F31342789317F30B7
:1012F2002000B0000030B1009F3143278931200027
:10130200C001C00A083040020318C929FF30B000EA
:101312000030B1009F314327893101302000BE00E7
:101322003E08C007832930304102031CC929410805
:10133200603EB000003003180130B1009F31342705
:1013420089318C302000B0000030B1009F31342749
:1013520089317F302000B0000030B1009F31432737
:1013620089312000C001C00A083040020318C9298F
:10137200FF30B0000030B1009F3143278931013086
:101382002000BE003E08C00708304002031CB929F5
:101392000130BE003E08C10740304102031C6229F1
:1013A2003630B0000030B1009F31342789313030FF
:1013B2002000B0000030B1009F3134278931053060
:1013C2002000BE003E08AC006808BF003F08AD0028
:1013D20020309331D123893120302000B2000130F6
:1013E200B3000530BE003E08B400023094316C24D4
:1013F200893105302000BE003E08AC006B08BF00FA
:101402003F08AD0034309331D1238931343020008C
:10141200B2000130B3000530BE003E08B400033014
:1014220094316C2408002000D5000030B200B300D3
:1014320095311A258A312000D601D7015708803A02
:10144200C500803045020830031956020318CB2A22
:101452002000D801D9015908803AC50080304502E0
:101462000830031958020318BC2A20005708C60086
:101472005608C500C535C60DC535C60DC535C60DE0
:101482005508C700C8010630C735C80D890B452A63
:101492004708C03EC900FF30483DCA007030CB004B
:1014A2002230CC0049084B07CD004A084C3DCE0003
:1014B20045084D07CF0046084E3DD00058084F075B
:1014C20086005908503D87000108D1005608D20015
:1014D2000330D235890B6A2AA6305207D300580846
:1014E2005307D4005408860087015108810056082A
:1014F200C5000330C535890B7B2AA6304507C600D7
:1015020058084607C70047088600870101080319E3
:10151200AD2A5808C5004508B9005608C600033070
:10152200C635890B912AA6304607C70058084707D7
:10153200C8004808860087010108C9000230C93581
:10154200FF3E031DA02A4935B03ECA004A08BA0030
:101552005608973160278A3101302000D8070030C1
:10156200D93D5908803AC500803045020830031938
:101572005802031C362A01302000D6070030D73D1E
:101582005708803AC50080304502083003195602D8
:10159200031C292A2000E501E4012100260808385D
:1015A2002000C50045082100A6002000B901210045
:1015B20026082000C5000230C535FF3E031DDD2A86
:1015C2004535D83EB03EC6004608BA0000309731D5
:1015D20060278A312100A50120005508C500C601F7
:1015E2004508BE004608BF0086319226080000303A
:1015F2002000B200B30095311A258A312000E4019F
:10160200E5010830BF003F08C1000230BF003F08BB
:10161200C200C301C401C501C601E701E70A1A30CD
:10162200BF003F08B200B301B30A67089231BE227D
:101632008A31923116228A31D02BE90167030319CC
:10164200D02B04306706031D462B0030B200B300D6
:1016520095311A258A31923116228A312000C3012E
:10166200C4010130E7026708BF00C0013F08C5009E
:101672004008C6001A30BF003F08B200B301B30AE7
:1016820045089231BE228A31D02B01302000E70278
:1016920043084404031D542B6708BF00C0013F08E0
:1016A200C50040085A2B6708FE3EC500FF300318EC
:1016B2000030C600CF30B2009030B300B401B40A9B
:1016C2004508013E94316C248A311A302000BF0053
:1016D2003F08B200B301B30A45089231BE228A31F3
:1016E200D02BE901063067060319D02B03306706B9
:1016F200031D9F2B0030B200B30095311A258A31A9
:1017020092314A228A3101302000BF003F08E707A8
:101712000130C3000030C4006708FE3EC500FF3040
:1017220003180030C6001A30BF003F08B200B301F0
:10173200B30A45089231BE228A31D02B01302000F3
:10174200BF003F08E70743084404031DAF2B6708A7
:10175200BF00C0013F08C5004008B52B6708FE3E28
:10176200C500FF3003180030C600CF30B200903001
:10177200B300B401B40A4508FF3E94316C248A31A7
:101782001A302000BF003F08B200B301B30A450877
:101792009231BE228A31D02BE9016708080020006D
:1017A200690303191E2B0230200069060319722BEC
:1017B2000530200069060319CD2B06306906031D8A
:1017C200D02BE901E7019F3174278A3191311A2127
:1017D200003008002000B700B4012A03FF3A033E9C
:1017E200AB002B08B5008030AB002B08B600BA0165
:1017F20008303A020318F02C3A35A03E8600013038
:1018020087000108AB002B08B80003143A0DA03E74
:101812008600013087000108AB002B08B900BB012C
:10182200BC01BC0ABE2C3B08031D4A2C3908AB0084
:101832002B08A3003C089F3162278B312000290727
:10184200AC00A6302C07AD003C08AE00AF012E085C
:10185200A3002F08A4003808B000B1013008A50089
:101862003108A6009F31C4278B3120002308370797
:10187200B2000230B235FF3E031D3B2C32352D073C
:10188200B30033088600870101083506031DB32C17
:101892007F2C3B03031DBA2C3908AB002B08A30095
:1018A2003C089F3162278B3120002907AC00A6300B
:1018B2002C07AD003C08AE00AF012E08A3002F0894
:1018C200A4003808B000B1013008A5003108A60014
:1018D2009F31C4278B31200023083707B200023022
:1018E200B235FF3E031D712C32352D07B30033088C
:1018F2008600870101083506031D822CBB01BB0A45
:10190200BA2C3908AB002B08A3003C089F31622790
:101912008B3120002907AC00A6302C07AD003C0813
:10192200AE00AF012E08A3002F08A4003808B000B3
:10193200B1013008A5003108A6009F31C4278B31C0
:10194200200023083707B2000230B235FF3E031DE4
:10195200A62C32352D07B300330886008701010813
:10196200031DB52CBB01DC2C0230AB002B08BB00E5
:10197200DC2C0130AB002B08BC073808AB002B086D
:10198200A3003C089F3162278B3120003707AC004F
:1019920008302C020318DC2C3908AB002B08A300FA
:1019A2003C089F3162278B3120002907AC000830A8
:1019B2002C02031C142C02303B06031DE42C3608B7
:1019C200AB002B08B4043636AB002B08B60001304E
:1019D200AB002B08BA0708303A02031CFD2B34086F
:1019E2000800003400340034003400340034003481
:1019F2000034003400340034003400340034003445
:101A02000034003400340134023401340034003430
:101A1200003400340034023402340234003400341E
:101A22000034003400340134023401340034003410
:101A32000034003400340034003400340034003404
:101A420000340034003400340034003400340034F4
:101A520000340034003400340034003400340034E4
:101A620000340034003400340034003400340034D4
:101A720000340034003400340034003400340034C4
:101A820000340034003402340234003400340034B0
:101A9200003400340034023401340234003400349F
:101AA2000034003400340034023402340034003490
:101AB2000034003400340034003400340034003484
:101AC2000034003400340034003400340034003474
:101AD2000034003400340034003400340034003464
:101AE2000034003400340034003400340034003454
:101AF2000034003400340034003400340034003444
:101B02000034003400340234003400340034003431
:101B12000034003400340134023400340034003420
:101B2200003400340034013401340234003400340F
:101B32000034003400340034003400340034003403
:101B420000340034003400340034003400340034F3
:101B520000340034003400340034003400340034E3
:101B620000340034003400340034003400340034D3
:101B720000340034003400340034003400340034C3
:101B820000340034003402340134023400340034AE
:101B9200003400340034013401340034023400349F
:101BA200003400340034023400340234023400348D
:101BB200003400340034003402340234023400347D
:101BC2000034003400340034003400340034003473
:101BD2000034003400340034003400340034003463
:101BE2000034003400340034003400340034003453
:101BF200003400340034003400340034023402343F
:101C0200003400340034003400340234003401342F
:101C12000034003402340234003402340134023419
:101C22000034003401340134003400340034003410
:101C320000340034023401340134023400340034FC
:101C420000340034013402340134023400340034EC
:101C520000340034003400340034003400340034E2
:101C620000340034003400340034003400340034D2
:101C720000340034003400340134023400340034BF
:101C820000340034003400340134023401340234AC
:101C9200003400340034023402340034013402349B
:101CA200003400340034013401340234023400348C
:101CB200003400340034003400340234013400347F
:101CC2000034003400340034003400340034003472
:101CD2000034003400340034003400340034003462
:101CE20000342000D6005608C7000330C735890BE0
:101CF200772EA6304707C80045084807C90049089B
:101D020086008701010803390319892E0030080073
:101D12004508C7004708A9004608C8004808AA00A5
:101D220056088B31EB238E312000C9004908D100BF
:101D32005108031D9E2E003008008030C70047085E
:101D4200D20046080838C7005608C8000330C83514
:101D5200890BA82EA6304807C90045084907CA00C2
:101D62004A0886008701470881004603031DBE2EEC
:101D72000130C7004708E807C62E02304606031D99
:101D8200C62E0130C7004708EB0701302100A00230
:101D92002000D501083055020318B62FD701D70A03
:101DA200510852050319AA2F5535A03E860001306D
:101DB20087000108C7004708D3000314550DA03E51
:101DC2008600013087000108C7004708D4008C2F25
:101DD2005408C7004708A30057089F3162278E3175
:101DE20020004507C800A6304807C9005708CA00A6
:101DF200CB014A08A3004B08A4005308CC00CD0134
:101E02004C08A5004D08A6009F31C4278E31200042
:101E120023085607CE000230CE35FF3E031D0D2F9C
:101E22004E354907CF004F08860087010108460654
:101E32000319AA2F4608C7005408C8004808A3007F
:101E420057089F3162278E3120004507C900A6300E
:101E52004907CA005708CB00CC014B08A3004C0825
:101E6200A4005308CD00CE014D08A5004E08A600DF
:101E72009F31C4278E31200023085607CF0002303D
:101E8200CF35FF3E031D412F4F354A07D000500882
:101E920086008701470881005408C7004708A3004D
:101EA20057089F3162278E3120004507C800480835
:101EB200B9004608C9000230C935FF3E031D5D2F37
:101EC2004935B03ECA004A08BA005308CB004B0855
:101ED200A30057089F3162278E31200056079731A1
:101EE20060278E3120004603031D7E2F0130C7007C
:101EF2004708E8070130EB02882F02304606031D2F
:101F0200882F0130E8020130C7004708EB07013093
:101F1200C7004708D7075408C7004708A300570857
:101F22009F3162278E3120004507C80008304802E1
:101F32000318AA2F5308C7004708A30057089F3168
:101F420062278E3120005607C80008304802031C61
:101F5200E92E5236C7004708D2000130C7004708B1
:101F6200D50708305502031CCF2E4508C700470885
:101F7200B9004608C8000230C835FF3E031DBD2F18
:101F82004835183EB03EC9004908BA005608973194
:101F920060278E3105302000C7004708AC00680872
:101FA200C8004808AD0020309331D1238E31203053
:101FB2002000B2000130B3000530C7004708B4006A
:101FC200023094316C248E3105302000C70047085E
:101FD200AC006B08C8004808AD0034309331D123FF
:101FE2008E3134302000B2000130B3000530C7001A
:101FF2004708B400033094316C2401300800503497
:10200200723465347334733420346234613463342B
:102012006B34203474346F3420346534783469344A
:1020220074340034473461346D34653420344D34B3
:1020320061346334683469346E346534003458343E
:10204200693461346F3462346134773461346E34AC
:1020520067340034573465346C3463346F346D3410
:102062006534203474346F3400345734683469343E
:10207200743465342034573469346E340034423455
:102082006C34613463346B342034573469346E34C5
:1020920000346834653469346234613469347134CB
:1020A200693400346C346534763465346C342034ED
:1020B2003134003420344D3469346E343A3430349F
:1020C200313400346C346534763465346C34203405
:1020D2003234003420344D3469346E343A3430347E
:1020E200323400346C346534763465346C342034E4
:1020F2003334003420344D3469346E343A3430345D
:10210200333400346C346534763465346C342034C2
:102112003434003420344D3469346E343A3430343B
:10212200343400346C346534763465346C342034A1
:102132003534003420344D3469346E343A3430341A
:10214200353400346C346534763465346C34203480
:102152003634003420344D3469346E343A343034F9
:102162003734003453347534633463346534733430
:1021720073340034703469346E34673420346A3412
:10218200753400347734613479346F34753474348F
:10219200003420342E342E342E34003420340034D3
:1021A600FB01FC017708F1007608F0000630F2002A
:1021B6000030F3009F318E2790317C08803AF8007A
:1021C6007108803A7802031DEA2870087B0203181A
:1021D60008000130F9070030FA3D0130FB070030F6
:1021E600FC3DD5282000AE01AF012A08A40029082D
:1021F600A3000630A5000030A6009F31C427903109
:1022060020002F08803AAB002408803A2B02031DD9
:102216000E2923082E020318080001302000AC07FF
:102226000030AD3D0130AE070030AF3DF8284A30F2
:102236002000B2009030B3000230BE003E08B40069
:10224600013094316C249131C3302000B2009030BB
:10225600B3000230BE003E08B400023094316C2454
:1022660091311A302000BE003E08B200B301B30A15
:1022760001309231BE22080021008D1624008D16F1
:102286002F3021008E002F3024008E002100951360
:1022960020008E195029013008000E1854290230EA
:1022A60008000E195829033008008E185C290430DE
:1022B60008008D1A6029053008008E1A6429063038
:1022C6000800003008002B302000B2009030B30028
:1022D600B401B40A013094316C24913120302000CD
:1022E600B2009030B300B401B40A023094316C24C9
:1022F600913113302000B2009030B300B401B40A1B
:10230600033094316C24913100302000B200B300C8
:1023160095311A25080021002408FD007D082000BB
:10232600A00091313F219131FD007D082100A400DC
:102336002408031DA0292000A00120002008210058
:102346002406031DB62924080319B629C830F60049
:102356000030F7009031D320913121002408031971
:10236600B62924080800003008002000A600260828
:102376000319C12904302606031DC3298030DF292D
:1023860026030319CA2905302606031DCC298830E1
:10239600DF29023026060319D42906302606031D36
:1023A600D6299030DF29033026060319DE290730A7
:1023B6002606031DE2299830A4002408A500250856
:1023C60008002000A601083026020318142AA701D7
:1023D6000830270203180C2A2608A3000330A33569
:1023E600890BF229A6302307A40027082407A50095
:1023F60025088600870102300106031D042A0030E5
:1024060008000130A3002308A70708302702031C91
:10241600EF290130A3002308A60708302602031C73
:10242600EA290130080053302000B2009030B30092
:102436000330BE003E08B400013094316C24923162
:1024460063302000B2009030B3000330BE003E0877
:10245600B400023094316C24923173302000B20003
:102466009030B3000330BE003E08B4000330943110
:102476006C249231CB302000B2009030B30007308C
:10248600BE003E08B400043094316C240800CA3003
:102496002000B2009030B3000730BE003E08B40002
:1024A600013094316C24923183302000B200903098
:1024B600B3000330BE003E08B400023094316C24F1
:1024C600923193302000B2009030B3000330BE004A
:1024D6003E08B400033094316C249231A3302000BE
:1024E600B2009030B3000330BE003E08B4000430A2
:1024F60094316C240800003401340034FF34013474
:102506000034013401340134FF34FF340034FF3425
:102516000134FF34FF340034003400340034003416
:1025260000340034003400343C347E347E347E344F
:102536007E343C34003400343C3442344234423439
:1025460042343C340034FF34813481348134813464
:1025560081348134FF34FF3481349934BD34BD3441
:1025660099348134FF34FF3481349934A534A53449
:1025760099348134FF342000BC0021006908200012
:10258600B900210068082000B80021006708200073
:10259600B700210066082000B600BA01BB01303042
:1025A600B0000030B1009F31342792310630200050
:1025B600B0000030B1009F313427923120003C0832
:1025C600FF3E363E8600870133080107B400B50199
:1025D600B50D3408FF3EB000FF30353DB1009F31E8
:1025E6003427923120003208B400B5013408B00017
:1025F6003508B1009F31432708002000B1002100B3
:102606006F082000B00021006E082000AF000430E3
:102616003102031C102B3008112B2F08AD00AE0120
:102626002D08B2002E08B3003208AD002D08B60002
:102636002C1C282B0230A3000030A4002C08FF3EDF
:10264600A500FF3003180030322B0230A300003003
:10265600A4002C08AD00AE012D08A5002E08A6008A
:1026660094311A2420002408B5002308B400340845
:10267600AD002D08B80036083807AD002D08B700A4
:10268600370808002000A901A61F502BA509A60996
:10269600A50A0319A60AA901A90AA41F572BA3096B
:1026A600A409A30A0319A40A2308240403197E2BE8
:1026B600A801A80AA41B692B0130A335A40D890B18
:1026C600602B0130A7002708A8075D2B24082602E7
:1026D600031D6F2B23082502031C752B2308A50257
:1026E6002408A63B0130A436A30C890B762B0130B7
:1026F600A802031D692B29080319862BA509A6091B
:10270600A50A0319A60A2608A4002508A30008009E
:1027160020345B3442345D343A34003400340034BF
:102726000034003420345734613479343A34003478
:10273600003400340034003420345B3457345D34C4
:102746003A3400340034003400340034FF34813429
:1027560081348134813481348134FF34FF348134CF
:102766009934BD34BD3499348134FF34FF34813417
:102776009934A534A53499348134FF3400343C347B
:102786007E347E347E347E343C34003400343C3433
:1027960042344234423442343C3400342000B400E3
:1027A6002C08AE00AF012E08B2002F08B3000A3085
:1027B600A3000030A4002D08AE00AF012E08A5002E
:1027C6002F08A60094311A24933120002308303EA6
:1027D600B00032083407B1003108860001308700A6
:1027E600300881000A30A3000030A4002D08AE0096
:1027F600AF012E08A5002F08A6009331452320001F
:102806002308303EB0003208013E3407B1003108DB
:10281600860001308700300881003208023E340706
:10282600AE002E08860001308700810108002000D6
:10283600A901A41F252CA309A409A30A0319A40A04
:10284600A901A90AA61F302CA509A609A50A0319DC
:10285600A60A0130A7002708A906AA01AB0123088A
:10286600240403195F2CA801A80AA41B442C0130D8
:10287600A335A40D890B3B2C0130A7002708A80718
:10288600382C0130AA35AB0D890B452C24082602BD
:10289600031D4F2C23082502031C562C2308A502D2
:1028A6002408A63B2A140130A436A30C890B572C06
:1028B6000130A802031D442C29080319672CAA0914
:1028C600AB09AA0A0319AB0A2B08A4002A08A3001D
:1028D60008002000BD0021006D082000BA0021007C
:1028E6006C082000B90021006B082000B800210008
:1028F6006A082000B700BB01BC013030B0000030D0
:10290600B1009F313427943106302000B0000030EA
:10291600B1009F313427943120003D08FF3E373EF9
:102926008600870134080107B500B601B60D3508E3
:10293600FF3EB000FF30363DB1009F313427943161
:10294600200032083B07840033083C3D8500120016
:1029560003190800200032088400330885000008A7
:10296600B500B6013508B0003608B1009F314327DF
:10297600943101302000B2070030B33DA32C200073
:10298600AD002D08A6000330A635890BC72CA6304E
:102996002607A70023082707A8002808860087011E
:1029A600811DF92C2D08A6000330A635890BD82CDD
:1029B600A6302607A70023082707A80028088600B0
:1029C60087010108A9000330A935890BE72CD83007
:1029D6002907AA00B0302A07AB0024082B07AC0051
:1029E6002C08860001308700010808002D08A60083
:1029F6000330A635890BFC2CA6302607A700230832
:102A06002707A8002808860087010108A9000330C7
:102A1600A935890B0B2DB0302907AA0024082A07EF
:102A2600AB002B0886000130870001080800013042
:102A36002000B0000030B1009F313427953164305A
:102A46002000A9000030AA009031F52095313430DD
:102A56002000B0000030B1009F31342795312000AE
:102A6600B601203036020318682D3608803EB000C5
:102A7600003003180130B1009F3134279531803082
:102A86002000B0000030B1009F313427953120007E
:102A9600B501203035020318602D3308B100320825
:102AA600B0009F314327953101302000B40034082F
:102AB600B50720303502031C502D0130B400340810
:102AC600B60720303602031C382D3630B0000030F1
:102AD600B1009F313427953130302000B0000030EE
:102AE600B1009F31342708002000C0006808031D8C
:102AF6007E2D023008006B08031D832D013008006F
:102B060021002008031D9A2D200068086B02031877
:102B16008E2D013008006B0868020318942D0230D0
:102B2600080068086B06031D080003300800200033
:102B3600C201083042020318CC2DC30108304302FB
:102B46000318C42D4308BD003D08A9004003FF3A01
:102B5600033EBE003E08AA0042088B31EB239531A6
:102B66002000BF003F08C10041080319BC2D0030FA
:102B760008000130BD003D08C30708304302031CAE
:102B8600A52D0130BD003D08C20708304202031CD6
:102B9600A02D68086B020318D22D013008006B08BF
:102BA60068020318D82D0230080068086B06031D5A
:102BB60008000330080021008C0122008C0123004C
:102BC6008C0121008D0123008D0121008E01220040
:102BD6008E017A30210099008B170B170230910075
:102BE600200091017F309B0078309C041C15033037
:102BF6009C040D101430A9000030AA009031F52075
:102C0600953120000D141430A9000030AA0090312F
:102C1600F520953130302000B0000030B1009F31F2
:102C26003427953164302000A9000030AA00903185
:102C3600F520953130302000B0000030B1009F31D2
:102C46003427953164302000A9000030AA00903165
:102C5600F52095310C302000B0000030B1009F31D6
:102C66003427953164302000A9000030AA00903145
:102C7600F520953101302000B0000030B1009F31C1
:102C86003427953164302000A9000030AA00903125
:102C9600F520080021002308031DBE2E200069032D
:102CA600031D702EE901670303190800CF30B20037
:102CB6009030B300B401B40A670894316C2496319D
:102CC6001A302000E2006208B200B301B30A0130F4
:102CD600E70267089231BE2208000230200069062A
:102CE600031D932EE9010230670603190800CF3051
:102CF600B2009030B300B401B40A670894316C2472
:102D060096311A302000E2006208B200B301B30A1D
:102D16000130E3006308E70767089231BE22080026
:102D2600053020006906031D0800E9016708E20076
:102D360062082100A3002000E401E501210023032D
:102D4600031DA82E88310920963102302100230662
:102D5600031D08008A31F82296312000E20062083D
:102D6600EA006A080319BB2E6A088A311422080091
:102D76002100A30108002303031DC72E2000E7013D
:102D8600E70A803186200800023021002306031D51
:102D960008002000E701E70A833194230800200099
:102DA6004608A4004508A3004808A6004708A50051
:102DB6009F31E0279631003A0319080020004508A4
:102DC600C9000330C935890BE52EA6304907CA006C
:102DD60047084A07CB004B088600870101080319FC
:102DE60008004508C9000330C935890BF72EA630FF
:102DF6004907CA0047084A07CB004B0886008701E7
:102E060001030319192F4508C9000330C935890B79
:102E1600092FA6304907CA0047084A07CB004B08C6
:102E26008600870102300106031D08004508C90017
:102E36000330C935890B1C2FA6304907CA0047083D
:102E46004A07CB004B08860087010103FF3A033E81
:102E5600CC004508CD000330CD35890B2F2FA63089
:102E66004D07CE0047084E07CF004F088600870162
:102E76004C0881004708C9004908B9004508CA003E
:102E86000330CA35890B442FA6304A07CB004708C2
:102E96004B07CC004C08860087010108CD000230A4
:102EA600CD35FF3E031D532F4D35B03ECE004E08A7
:102EB600BA0045089731602708002000C20039088B
:102EC600BB003B08A30042089131B821973120008E
:102ED600BC003C08C0003908BB003B08AC004208F7
:102EE6009331002397312000BC003C08C10039080B
:102EF600BB003B08A30042089F31262797312000DC
:102F06002408BF002308BE003430B0000030B100F2
:102F16009F31342797312000C301C4014408803A09
:102F2600BB0080303B020830031943020318F02F20
:102F3600200040084307B00044080318440AB100C3
:102F46009F313427973120004108BB00BC013B0864
:102F5600B0003C08B1009F313427973120003E086D
:102F66003F040319CF2F20003908FF3EBB003B0862
:102F7600A3004408A5004308A40042089431C224D3
:102F860097312000BC00BD013C08B0003D08B100EF
:102F96009F314327973120003A0886000130870089
:102FA6000108BB00BC013B08B0003C08B1009F31E2
:102FB6004327973101302000BB003B08BA07013098
:102FC600C3070030C43D4408803ABB0080303B0252
:102FD600083003194302031C9B2F36302000B00033
:102FE6000030B1009F313427973130302000B000D7
:0A2FF6000030B1009F3134270800BD
:103E080080349034883498348034903488349834AA
:103E1800803488346400800101310130FE020030B2
:103E2800FF3B7F087E04031900340F2FFE001200A9
:103E38001E000130FE020030FF3B7F087E0403199C
:103E480000341B2F2000A601A701231C2F2F0130AF
:103E5800A6000030A7002708A4002608A300080031
:103E680020008D100D118D118D1430088C008D10CF
:103E78000130A9000030AA009031F5200800200088
:103E88008D100D118D158D1430088C008D1001309A
:103E9800A9000030AA009031F52008009531DE25F0
:103EA8009F319F3174279F31913166219F31913124
:103EB8001A219F3196314D269F315E2F2000A60092
:103EC800A501261C6B2F2308A4002408A5070310AE
:103ED800A30D0310A60C2608031D652F250808004E
:103EE8002100A3012000E901E701E70AE401E50157
:103EF8000030A300A4004030A5000030A600A63082
:103F08009F31A9279F3100302000B200B3009531BE
:103F18001A250800F401F501701C962F7208F407A1
:103F28007308F53D0130F235F30D890B972F0130F9
:103F3800F136F00C890B9C2F70087104031D902F2B
:103F48007508F1007408F00008002000A90029088D
:103F5800A7002708A8000130A5020030A63B250AC3
:103F68000319260A031908002308A7002808860051
:103F78008701270881000130A7002708A807AF2F6D
:103F88002000A701A801231CCD2F2508A707260874
:103F9800A83D0130A535A60D890BCE2F0130A436DA
:103FA800A30C890BD32F23082404031DC72F28082B
:103FB800A4002708A30008002000A41BFE2F240843
:103FC800803AA70080302702031DEC2F0930230216
:103FD8000318FE2F2000A61BFE2F2608803AA700F4
:103FE80080302702031DFA2F093025020318FE2FFF
:083FF800013008000030080050
:020000040001F9
:04000E00E4FFFFFF0D
:00000001FF
